:020000040000FA
:020000000528D1
:040002000034003492
:080008004A28A0308B000630ED
:1000100081008316D2308100880187018312FF306E
:10002000880087012330A4004130A5005430A60089
:100030005530A7005030A8003030AA003030AB0057
:100040003030AD003030AE003A30AC000530A000AA
:10005000A101A3010630A2001430A9000530AF00B1
:10006000B001B101B201B301B401B501B601B701EC
:10007000B8010930B4000530B5000330B6000230D5
:10008000B700381C442847283A30AC0041282030BB
:10009000AC0041280B194C28063081002A3084001E
:1000A000B620AF0B68286A2030303407AA00303001
:1000B0003507AB0030303607AD0030303707AE00C3
:1000C0003108031D68283008031D68280130B80670
:1000D0000B1109007C2003198220031988200319C1
:1000E0008E200319942003199A200319A0200319C4
:1000F000B0200530AF000800B00A0A3030060319FE
:10010000B0010800B10A0A3031060319B101080034
:10011000B20A0A3032060319B2010800B30A0630E7
:1001200033060319B3010800B40A0A303406031970
:10013000B4010800B50A063035060319B5010800F8
:10014000B60A04303606031DAB2802303706031DFD
:10015000AB28B60108000A3036060319B6010800BC
:10016000B70A033037060319B7010800C320840A11
:10017000A00BB628FF308800871524248711D520CE
:100180000530A00008000021A100211CD128D3289F
:10019000871000008714A10CA20BC5280630A2000E
:1001A00008000711C8280715C828A30A0830230625
:0601B0000319A301080081
:1002000001308A0020300002820740294A295429FF
:100210005E29682972297C29862990299A29A4298E
:10022000AE29B829C229CC29D629002A0C2A182A95
:10023000242A302A3C2A482A542A602A6C2A782AFE
:10024000842A902A9C2AA82AB42AC02ACC2AD82AEE
:10025000E42A002B0C2B182B242B302B3C2B482B67
:10026000542B602B6C2B782B842B902B9C2BA82B46
:10027000B42BC02BCC2BD82BE42B002C0C2C182C03
:100280002308820700340034003400340034003482
:1002900000340034230882070C340C340C340C3442
:1002A0000C3400340C340C342308820724342434F6
:1002B000243400340034003400340034230882072E
:1002C0000A340A341F340A340A341F340A340A3414
:1002D0002308820704340E34153414340E340534E4
:1002E0001E340434230882070034183419340234CD
:1002F0000434083413340334230882070C341234D2
:1003000012340D341E34123412340D342308820793
:100310000834083408340034003400340034003425
:100320002308820707340C3418341834183418346E
:100330000C340734230882071C3406340334033496
:100340000334033406341C34230882070034153484
:100350000E341F341F340E34153400342308820742
:100360000034043404341F340434043400340034BE
:10037000230882070034003400340034003403348E
:1003800001340234230882070034003400341F345F
:100390000034003400340034230882070034003471
:1003A0000034003400340E340E340E342308820737
:1003B00000340134033406340C341834303420341F
:1004000002308A00230882070E3413341334153463
:100410001934193419340E3402308A002308820743
:10042000033407340F341B340334033403340334EC
:1004300002308A00230882070E341134013402345A
:100440000434083410341F3402308A002308820731
:100450001F340134013406340134013411340E34B4
:1004600002308A0023088207023406340A34123428
:100470001F3402340234023402308A002308820717
:100480001F34103410341E340134013411340E344E
:1004900002308A00230882070E34103410341E34D0
:1004A0001134113411340E3402308A0023088207CB
:1004B0001F34013401340234043404340434043469
:1004C00002308A00230882070E34113411340E34AE
:1004D0001134113411340E3402308A00230882079B
:1004E0000E341134113411340F34013401340E340C
:1004F00002308A00230882070E340E340E34003492
:1005000000340E340E340E3402308A002308820781
:10051000003400340334033400340334013402342F
:1005200002308A00230882070034023406340C3477
:1005300018340C340634023402308A00230882074F
:10054000003400341F341F3400341F341F3400348F
:1005500002308A0023088207003408340C34063441
:10056000033406340C34083402308A00230882072E
:100570000E341B34033406340C340C3400340C3485
:1005800002308A002308820700340E3411341734F5
:100590001534173410340E3402308A0023088207D1
:1005A0000E34113411341F341F341134113411340A
:1005B00002308A00230882071E34113411341E349D
:1005C0001134113411341E3402308A00230882079A
:1005D0000E341134103410341034103411340E34FD
:1006000003308A00230882071E3411341134113458
:100610001134113411341E3403308A002308820748
:100620001F34103410341E341034103410341F347E
:1006300003308A00230882071F34103410341E341C
:10064000103410341034103403308A002308820729
:100650000E34113410341F341134113411340E346B
:1006600003308A00230882071134113411341F34F7
:10067000113411341134113403308A0023088207F5
:1006800004340434043404340434043404340434AA
:1006900003308A00230882071F34023402340234F4
:1006A0000234023412340C3403308A0023088207E7
:1006B00011341234143418341834143412341134FC
:1006C00003308A00230882071034103410341034A9
:1006D0001034103410341F3403308A00230882078A
:1006E00011341B341B3415341134113411341134CA
:1006F00003308A0023088207113419341934153461
:10070000133413341334113403308A00230882075E
:100710000E341134113411341134113411340E34B7
:1007200003308A00230882071E34113411341E342A
:10073000103410341034103403308A002308820738
:100740000E3411341134153415340E34023402349D
:1007500003308A00230882071E34113411341E34FA
:10076000123411341134113403308A002308820703
:100770000E34113410340E340134013411340E347B
:1007800003308A00230882071F34043404340434FD
:10079000043404340434043403308A002308820708
:1007A00011341134113411341134113411340E3424
:1007B00003308A00230882071134113411341134B4
:1007C000113411340A34043403308A0023088207B8
:1007D000113411341134153415341B341B341134D5
:1008000004308A0023088207113411340A34043476
:1008100004340A341134113404308A002308820766
:100820001134113411340A340434043404340434DB
:1008300004308A00230882071F340134033406344D
:100840000C34183410341F3404308A002308820713
:10085000302C322C342C362C382C3A2C3C2C3E2C80
:100860000810080088100800081108008811080006
:1008700008120800881208000813080088130800EE
:02400E00E127A8
:02401000FF3F70
:00000001FF
