:020000040000FA
:020000000528D1
:040002000034003492
:080008001C2883168801870102
:1000100003308100B0308B00031789010313831272
:1000200064308100A001A101A201A301A401A601E5
:100030000430A50000001A288B187B281F28643084
:1000400081003F20A50B2728261C27282A205D2079
:100050000B11090063200319692003196F2003198C
:1000600075200430A500080082073F3406345B3455
:100070004F3466346D347D3407347F346F34240854
:10008000820745284B28512857288701200834200B
:100090008800071708008701210834208800871787
:1000A000080087012208342088008716080087018D
:1000B00023083420880007160800A40A0430240608
:1000C0000319A4010800A00A0A3020060319A001A0
:1000D0000800A10A0A3021060319A1010800A20A9A
:1000E0000A3022060319A2010800A30A06302306DB
:1000F0000319A30108008B20061889288B200618F5
:1001000089280130A606261C8928A001A101A20188
:10011000A3018B1009000930A800B430A700A70B79
:080120008F28A80B8D280800B0
:02400E00E127A8
:02401000FF3F70
:00000001FF
