:020000040000FA
:020000000528D1
:040002000034003492
:080008002028A0308B00063017
:1000100081008316D1308100880187018312063068
:10002000A900A3014630A4004830A5004B30A6002B
:100030003930A7005030A8003230A10000001E283F
:10004000A10B232825200B11090024308400342023
:10005000840A3420840A3420840A3420840A342018
:1000600087150000871108000008AA0087102A1CC5
:100070003A284328071100008714AA0CA90B362838
:100080000630A9000800071500008714AA0CA90B68
:0800900036280630A900080023
:02400E00E127A8
:02401000FF3F70
:00000001FF
