:020000040000FA
:020000000528D1
:040002000034003492
:08000800182883168801870106
:1000100003308100A0308B00831264308100A00186
:10002000A101A201A301A4010430A500000016282B
:10003000643081003620A50B1E28212054200B118E
:1000400009005A20031960200319662003196C2047
:100050000430A500080082073F3406345B344F3477
:1000600066346D347D3407347F346F34240882075E
:100070003C28422848284E28870120082B20880049
:1000800007170800870121082B2088008717080020
:10009000870122082B208800871608008701230883
:1000A0002B20880007160800A40A04302406031930
:1000B000A4010800A00A0A3020060319A0010800C4
:1000C000A10A0A3021060319A1010800A20A0A3078
:1000D00022060319A2010800A30A06302306031909
:0400E000A301080070
:02400E00E127A8
:02401000FF3F70
:00000001FF
