:020000040000FA
:020000000528D1
:040002000034003492
:080008001E288316031789016D
:10001000F0308600811388308B000313FF30960088
:10002000F030950088018701831288018601241031
:1000300000307220A200220888001B280D308600A4
:10004000061E4A28861E5628061F6228861F6E280E
:100050000B308600061E4628861E5228061F5E2884
:10006000861F662807308600061E4228861E4E28F8
:10007000061F5A28861F6A280F3086003F288601EF
:100080000B10090001307220A2003F2802307220BC
:1000900088003F280330722088003F2804307220F7
:1000A00088003F280530722088003F2806307220E3
:1000B00088003F280730722088003F2808307220CF
:1000C00088003F280930722088003F2800307220C5
:1000D00088003F280030722088003F2800307220BE
:1000E00088003F2882073F3406345B344F3466343F
:0A00F0006D347D3407347F346F3423
:02400E00E127A8
:02401000FF3F70
:00000001FF
