:020000040000FA
:020000000528D1
:040002000034003492
:080008001F28A0308B008316B5
:10001000D53081008801870183126430810014305B
:10002000A0000430A2008701A1017730A30038307E
:10003000A4003F30A5007630A60000001D283D300A
:1000400081002A20210882073F283A2835283028B5
:100050000B110900A10A220821060319A1010800B9
:1000600087012608880007162828870125088800A8
:100070008716282887012308880007172828870162
:080080002408880087172828D6
:02400E00E127A8
:02401000FF3F70
:00000001FF
