:020000040000FA
:10000000831686018312F93086001E200328000023
:100010000000000000000000000008000000A43004
:100020001A28000040301A281F301A2800000E300D
:100030001A2805308C008C0B1B280800C8302D288E
:1000400064302D2832302D2814302D280A302D28E8
:1000500005302D2802302D2801308D00F9308C001C
:1000600000008C0B30288D0B2E280800C83041284A
:100070006430412832304128143041280A30412868
:1000800005308E0064308D00F9308C0000008C0B40
:0C00900046288D0B44288E0B42280800E7
:02400E00F13F80
:00000001FF
