:020000040000FA
:020000000528D1
:040002000034003492
:080008001A2883160317890171
:10001000F0308600811388308B000313FF30960088
:10002000F03095008801831288018601A101210822
:10003000880017280E308600061E4828861E542881
:10004000061F6028861F70280D308600061E502867
:10005000861E5C28061F6828861F74280B308600C1
:10006000061E4C28861E5828061F6428861F6C28EA
:1000700007308600061E4828861E5428061F602862
:10008000861F70280F308600452886010B10090056
:1000900001307820A100452802307820A1004528B1
:1000A00003307820A100452804307820A10045289D
:1000B00005307820A100452806307820A100452889
:1000C00007307820A100452808307820A100452875
:1000D00009307820A100452800307820A10045286B
:1000E00000307820A100452800307820A100452864
:1000F00082073F3406345B344F3466346D347D34CC
:0601000007347F346F3468
:02400E00E127A8
:02401000FF3F70
:00000001FF
