:020000040000FA
:020000000528D1
:040002000034003492
:080008001A2883160317890171
:10001000F0308600811388308B000313FF30960088
:10002000F0309500880183128801860100001628AF
:10003000000016280E308600061E4728861E50280F
:10004000061F5928861F65280D308600061E4A287F
:10005000861E5328061F5C28861F62280B308600E8
:10006000061E4D28861E5628061F5F28861F6828F4
:1000700007308600061E4728861E5028061F5C286B
:10008000861F65280F30860045280B1009000608DA
:100090008800452806088800452806088800452865
:1000A00006088800452806088800452806088800B4
:1000B00045280608880045280608880045280608BF
:1000C0008800452806088800452806088800452835
:0600D00006088800452827
:02400E00E127A8
:02401000FF3F70
:00000001FF
