:020000040000FA
:020000000528D1
:040002000034003492
:08000800232869309F00E0305D
:100010008B00643081008316D330810000309F0054
:100020000C178801870183121430A000A101A201DE
:10003000A301A401A5011E209F141B28A00B1E28AC
:100040001430A00008000B19532826281E08A6000B
:10005000A101A201A301A4010030A60603193928B9
:10006000A6033B20031941200319472003194D2003
:100070002C280C130900A10A0A3021060319A1013A
:100080000800A20A0A3022060319A2010800A30AE6
:100090000A3023060319A3010800A40A0630240627
:1000A0000319A401080064308100592077200B1146
:1000B0000900250882075F2865286B2871288701B9
:1000C00021087D20880007170800870122087D206D
:1000D000880087170800870123087D20880087167D
:1000E0000800870124087D20880007160800A50A5B
:1000F000043025060319A501080082073F340634A1
:100100005B344F3466346D347D3407347F346F3460
:02400E00E127A8
:02401000FF3F70
:00000001FF
