:020000040000FA
:10000000831686018312061086144120061486107A
:100010004120032800000000000000000000000054
:1000200008000000A4301D28000040301D281F30AB
:100030001D2800000E301D2805308000800B1E2872
:100040000800C8303028643030283230302814306E
:1000500030280A303028053030280230302801306E
:100060008100F93080000000800B3328810B31289B
:100070000800C83044286430442832304428143002
:1000800044280A3044280530820064308100F93069
:1000900080000000800B4928810B4728820B4528EF
:0200A000080056
:00000001FF
