:020000040000FA
:020000000528D1
:040002000034003492
:08000800702851309F000C1319
:100010009E019030980083160317403087008901B5
:10002000F0308600523081000313243098001930DC
:100030009900B0309F000C178C169E018801F1309A
:100040008700F0309600FF30950083128801870109
:10005000E8308B003030AA003030AB003030AD00DB
:100060003030AE003A30AC000530A000A101A30151
:100070000630A2001430A9000530AF00B001B10174
:10008000B201B301B401B501B601B7010830B8003F
:100090000130B9000430C0003E30C100CC212D3009
:1000A000C4002E30C5002D30C6002D30C70054309E
:1000B000C8005B30A4005F30A5005B30A800B3210E
:1000C0001730E4001230E500381C42294529391D5B
:1000D000642805303206031D642839113914642858
:1000E0000B1978280B18002B0C1BD4288C1AE52828
:1000F00098210630810039184829B9184C29391936
:100100005029B9195429391A5829B9165C29AF0B45
:10011000D128F62030303407AA0030303507AB0044
:1001200030303607AD0030303707AE003108031DE0
:10013000D1283008031DD1280130B8063008031932
:10014000310803193208031DA72833189F143108FA
:100150000319AE2805303102031DB12830080319F8
:10016000D721B81CD12830080319310803193208E7
:1001700003193308031DD12860083402031DD12858
:1001800061083502031DD12862083602031DD128FB
:1001900063083702031DD1283908A700B901B91631
:1001A000B8100B119C210900391CE32839103915AE
:1001B0001E08C30083161E088312C200C401C601B4
:1001C000C701602193210C130900982125088400A0
:1001D0001A08B81DF22899008000A121AB21E40B78
:1001E000F228B8118C1AE5289C210900082103196E
:1001F0000E210319142103191A21031920210319AF
:10020000262103192C2103193C210530AF000800D9
:10021000B00A0A3030060319B0010800B10A0A30EA
:1002200031060319B1010800B20A0A303206031977
:10023000B2010800B30A063033060319B3010800FF
:10024000B40A0A3034060319B4010800B50A0630AE
:1002500035060319B5010800B60A04303606031D39
:10026000372902303706031D3729B60108000A3046
:1002700036060319B6010800B70A0330370603191A
:10028000B70108003A30AC0067282030AC0067287E
:100290002A308400CD2387283A308400CD23872854
:1002A00044308400CD23872824088400CD23872868
:1002B0003A308400CD23872828088400CD2387285E
:1002C00064304202031C6729C2008C2160290A3075
:1002D0004202031C6E29C2008421672942080319C7
:1002E00074297C21C2036E29430803199229FF3027
:1002F000C200C3037C216029C40A0A304406031DDE
:100300000800C40184210800C60A0A304606031DFD
:100310000800C6018C210800C70A0A3047060319E5
:10032000C701080008003030C407C607C707080027
:10033000F000030EF1000800710E8300F00E700E45
:100340000800A50348302506031D08005F30A500FE
:100350005B30A40008002408A600A603260325029B
:100360000319A40308002D30C900CA00CB00CC003B
:10037000CD00CE00CF00D000D100D200D300D400F9
:10038000D500D600D700D800D900DA00DB00DC00A9
:10039000DD00DE00DF0008004D30BA004D30BB004C
:1003A0003A30BC004830BD004830BE000800381D5F
:1003B0000800A803E50B08005B30A8006608E5000C
:1003C0000800410884003F088000C103C0030230D8
:1003D00040060319C1034008031D08000430C00093
:1003E0003E30C100080030303A02B40030303B02E9
:1003F000B50030303D02B60030303E02B700B901E2
:100400003914CC21282BB91139146408650203185A
:100410001B2A212A30303A02E00030303B02E10052
:1004200030303D02E20030303E02E300B9013914C1
:10043000B814CC21282BE500E600E50AE60A3815B9
:10044000282B3811282B071187100000871408006B
:100600000E308600061E2B2B861E2F2B061F332B2B
:10061000861FB92B0D308600061E3B2B861E4B2BEA
:10062000061F5B2B861FBC2B0B308600061E6F2B14
:10063000861E832B061F972B861FC92B073086002B
:10064000061EAF2B861EAB2B061FB22B861FCC2B94
:1006500086010B1009003130BF00E121282B323018
:10066000BF00E121282B3330BF00043040020319C2
:10067000282BE121282B3430BF000430400203191D
:10068000282B03304002031D492B32303E02031950
:10069000282BE121282B3530BF00043040020319FC
:1006A000282B03304002031D492B32303E02031930
:1006B000282BE121282B3630BF00043040020319DB
:1006C000282B03304002031D6A2B32303E02031DEB
:1006D000E121282B02304002031DE121282B373075
:1006E000BF00043040020319282B03304002031DD1
:1006F0007E2B32303E02031DE121282B02304002C6
:10070000031DE121282B3830BF00043040020319BB
:10071000282B03304002031D922B32303E02031D72
:10072000E121282B02304002031DE121282B393022
:10073000BF00043040020319282B03304002031D80
:10074000A62B32303E02031DE121282B023040024D
:10075000031DE121282B3030BF00E121282BB901F6
:100760003914282BB918F329B919032A391A0A2A76
:10077000282BB901B914282BB8151730E400B9019A
:10078000B915B3215B30A4005F30A5001230E5003D
:10079000282BB9013916282B282BDA23840AA00B21
:1007A000CD2B23228801871524278711EC230530C0
:1007B000A00008000024A100211CE82BEA2B8710D0
:1007C00000008714A10CA20BDC2B0630A20008004D
:1007D0000711DF2B0715DF2BA30A083023060319A7
:0407E000A301080069
:1008000004308A00203000028207402C4A2C542CED
:100810005E2C682C722C7C2C862C902C9A2CA42C70
:10082000AE2CB82CC22CCC2CD62C002D0C2D182D77
:10083000242D302D3C2D482D542D602D6C2D782DE0
:10084000842D902D9C2DA82DB42DC02DCC2DD82DD0
:10085000E42D002E0C2E182E242E302E3C2E482E49
:10086000542E602E6C2E782E842E902E9C2EA82E28
:10087000B42EC02ECC2ED82EE42E002F0C2F182FE5
:10088000230882070034003400340034003400347C
:1008900000340034230882070C340C340C340C343C
:1008A0000C3400340C340C342308820724342434F0
:1008B0002434003400340034003400342308820728
:1008C0000A340A341F340A340A341F340A340A340E
:1008D0002308820704340E34153414340E340534DE
:1008E0001E340434230882070034183419340234C7
:1008F0000434083413340334230882070C341234CC
:1009000012340D341E34123412340D34230882078D
:10091000083408340834003400340034003400341F
:100920002308820707340C34183418341834183468
:100930000C340734230882071C3406340334033490
:100940000334033406341C3423088207003415347E
:100950000E341F341F340E3415340034230882073C
:100960000034043404341F340434043400340034B8
:100970002308820700340034003400340034033488
:1009800001340234230882070034003400341F3459
:10099000003400340034003423088207003400346B
:1009A0000034003400340E340E340E342308820731
:1009B00000340134033406340C3418343034203419
:100A000005308A00230882070E341334133415345A
:100A10001934193419340E3405308A00230882073A
:100A2000033407340F341B340334033403340334E6
:100A300005308A00230882070E3411340134023451
:100A40000434083410341F3405308A002308820728
:100A50001F340134013406340134013411340E34AE
:100A600005308A0023088207023406340A3412341F
:100A70001F3402340234023405308A00230882070E
:100A80001F34103410341E340134013411340E3448
:100A900005308A00230882070E34103410341E34C7
:100AA0001134113411340E3405308A0023088207C2
:100AB0001F34013401340234043404340434043463
:100AC00005308A00230882070E34113411340E34A5
:100AD0001134113411340E3405308A002308820792
:100AE0000E341134113411340F34013401340E3406
:100AF00005308A00230882070E340E340E34003489
:100B000000340E340E340E3405308A002308820778
:100B10000034003403340334003403340134023429
:100B200005308A00230882070034023406340C346E
:100B300018340C340634023405308A002308820746
:100B4000003400341F341F3400341F341F34003489
:100B500005308A0023088207003408340C34063438
:100B6000033406340C34083405308A002308820725
:100B70000E341B34033406340C340C3400340C347F
:100B800005308A002308820700340E3411341734EC
:100B90001534173410340E3405308A0023088207C8
:100BA0000E34113411341F341F3411341134113404
:100BB00005308A00230882071E34113411341E3494
:100BC0001134113411341E3405308A002308820791
:100BD0000E341134103410341034103411340E34F7
:100C000006308A00230882071E341134113411344F
:100C10001134113411341E3406308A00230882073F
:100C20001F34103410341E341034103410341F3478
:100C300006308A00230882071F34103410341E3413
:100C4000103410341034103406308A002308820720
:100C50000E34113410341F341134113411340E3465
:100C600006308A00230882071134113411341F34EE
:100C7000113411341134113406308A0023088207EC
:100C800004340434043404340434043404340434A4
:100C900006308A00230882071F34023402340234EB
:100CA0000234023412340C3406308A0023088207DE
:100CB00011341234143418341834143412341134F6
:100CC00006308A00230882071034103410341034A0
:100CD0001034103410341F3406308A002308820781
:100CE00011341B341B3415341134113411341134C4
:100CF00006308A0023088207113419341934153458
:100D0000133413341334113406308A002308820755
:100D10000E341134113411341134113411340E34B1
:100D200006308A00230882071E34113411341E3421
:100D3000103410341034103406308A00230882072F
:100D40000E3411341134153415340E340234023497
:100D500006308A00230882071E34113411341E34F1
:100D6000123411341134113406308A0023088207FA
:100D70000E34113410340E340134013411340E3475
:100D800006308A00230882071F34043404340434F4
:100D9000043404340434043406308A0023088207FF
:100DA00011341134113411341134113411340E341E
:100DB00006308A00230882071134113411341134AB
:100DC000113411340A34043406308A0023088207AF
:100DD000113411341134153415341B341B341134CF
:100E000007308A0023088207113411340A3404346D
:100E100004340A341134113407308A00230882075D
:100E20001134113411340A340434043404340434D5
:100E300007308A00230882071F3401340334063444
:100E40000C34183410341F3407308A00230882070A
:100E5000302F322F342F362F382F3A2F3C2F3E2F62
:100E600008140800881408000815080088150800F0
:100E700008160800881608000817080088170800D8
:02400E00E127A8
:02401000FF3F70
:00000001FF
