:020000040000FA
:020000000528D1
:040002000034003492
:08000800232883160317890168
:10001000F030860055308100A8308B000313FF308C
:100020009600F030950088018701831288018601CF
:10003000643081000430A200A301A401A501A6013F
:10004000A101000021280B182628A528952064303E
:1000500081000D308600061E5828861E6728061F60
:100060007628861F85280B308600061E5328861E9C
:100070006228061F7128861F7B2807308600061E0F
:100080004E28861E5D28061F6C28861F80280F308C
:1000900086004A2886010B100B1109009E200130B2
:1000A0008A20A3004A289E2002308A20A3004A28E2
:1000B0009E2003308A20A3004A289E2004308A20F4
:1000C000A3004A289E2005308A20A3004A289E20AB
:1000D00006308A20A3004A289E2007308A20A300E9
:1000E0004A289E2008308A20A3004A289E200930F2
:1000F0008A20A3004A289E2000308A20A3004A2894
:100100009E2000308A20A3004A289E2000308A20AA
:10011000A3004A2882073F3406345B344F346634E8
:100120006D347D3407347F346F341A30A800FF30CB
:10013000A700A70B9928A80B972808002508A60058
:100140002408A5002308A400080064308100B02022
:1001500021088207C528C028BB28B6280B11090032
:10016000A10A220821060319A10108008701260817
:1001700088000716AE288701250888008716AE2854
:100180008701230888000717AE2887012408880004
:040190008717AE28F7
:02400E00E127A8
:02401000FF3F70
:00000001FF
