:020000040000FA
:020000000528D1
:040002000034003492
:080008002628A0308B00063011
:1000100081008316D1308100880187018312FF306F
:10002000880087013230A4003730A5003530A600A3
:100030003330A7003030A8000530A000A101A30193
:100040000630A2001430A9000000242806308100E8
:10005000243084002D200B1109003A20840AA00BC3
:100060002D28FF3088008715EF2087114C200530A0
:10007000A00008005220A100211C48284A2887100F
:1000800000008714A10CA20B3C280630A200080037
:1000900007113F2807153F28A30A08302306031934
:1000A000A301080030300002820763286D287728FA
:1000B00081288B2895289F28A928B328BD28C728E0
:1000C000D128DB28E528230882070E3413341334A3
:1000D00015341934193419340E34230882070334C3
:1000E00007340F341B34033403340334033423083C
:1000F00082070E34113401340234043408341034CD
:100100001F34230882071F340134013406340134BC
:10011000013411340E3423088207023406340A34C1
:1001200012341F34023402340234230882071F348D
:10013000103410341E340134013411340E342308C9
:1001400082070E34103410341E341134113411343B
:100150000E34230882071F3401340134023404347E
:10016000043404340434230882070E341134113467
:100170000E341134113411340E34230882070E3436
:100180001134113411340F34013401340E34230886
:1001900082070E340E340E34003400340E340E3424
:1001A0000E3423088207003400340334033400344F
:1001B0000334013402342308820700340234063445
:1001C0000C3418340C34063402342308820700340B
:1001D00000341F341F3400341F341F34003423080C
:1001E0008207F928FB28FD28FF2801290329052972
:1001F0000729081008008810080008110800881155
:100200000800081208008812080008130800881364
:020210000800E4
:02400E00E127A8
:02401000FF3F70
:00000001FF
