:020000040000FA
:02000000532883
:040002000034003492
:06000A000330A200FA30F1
:10001000A100FA30A000A00B0B28A10B0928A20B0D
:1000200007280800003088000520103088000520CF
:10003000203088000520403088000520803088006E
:100040000520403088000520203088000520103031
:1000500088000520003088000520F0308800052049
:10006000003088000520F03088000520003088002E
:100070000520080000308800052010308800052089
:10008000303088000520703088000520F03088006E
:100090000520E03088000520C03088000520803031
:1000A000880005200800031383168801071E122804
:0600B000071A3A28562849
:02400E00E127A8
:02401000FF3F70
:00000001FF
