:020000040000FA
:020000000528D1
:040002000034003492
:080008006D2851309F000C131C
:100010009E01831603178901F0308600523081005B
:100020000313B0309F000C179E0188018701F03048
:100030009600FF309500831288018701E8308B001D
:100040002630A4004E30A5004130A6005630A7004F
:100050004930A8003030AA003030AB003030AD005D
:100060003030AE003A30AC000530A000A101A30151
:100070000630A2001430A9000530AF00B001B10174
:10008000B201B301B401B501B601B701B801013045
:10009000B9000430C0003E30C1003030BA0030300A
:1000A000BB003A30BC003030BD003030BE002D30D7
:1000B000C4002E30C5002D30C6002D30C70054308E
:1000C000C800381CFC28FF28391D6128053032067D
:1000D000031D61283911391461280B1973280B1875
:1000E000002B0C1B9F28462106308100391802295D
:1000F000B918062939190A29AF0B9C28B0203030CD
:100100003407AA0030303507AB0030303607AD0079
:1001100030303707AE003108031D9C283008031D1E
:100120009C280130B8063008031931080319320839
:10013000031D9C2833189F140B114A210900391CF8
:10014000AE28391039151E08C30083161E08831205
:10015000C200C401C601C7010E2141210C130900D0
:10016000C2200319C8200319CE200319D420031973
:10017000DA200319E0200319E6200319F6200530E0
:10018000AF000800B00A0A3030060319B0010800B9
:10019000B10A0A3031060319B1010800B20A0A3067
:1001A00032060319B2010800B30A063033060319F8
:1001B000B3010800B40A0A3034060319B401080078
:1001C000B50A063035060319B5010800B60A043031
:1001D0003606031DF12802303706031DF128B6014B
:1001E00008000A3036060319B6010800B70A0330C2
:1001F00037060319B70108003A30AC0064282030F4
:10020000AC0064282A30840086237C283A3084009D
:1002100086237C284430840086237C286430420274
:10022000031C1529C2003A210E290A304202031C80
:100230001C29C200322115294208031922292A212A
:10024000C2031C29430803194029FF30C200C3031D
:100250002A210E29C40A0A304406031D0800C401DD
:1002600032210800C60A0A304606031D0800C601EE
:100270003A210800C70A0A3047060319C7010800D7
:1002800008003030C407C607C7070800F000030E97
:0E029000F1000800710E8300F00E700E0800E1
:100600000E308600061E2B2B861E2F2B061F332B2B
:10061000861F652B0D308600061E372B861E3B2B52
:10062000061F3F2B861F682B0B308600061E432BB0
:10063000861E472B061F4B2B861F692B0730860013
:10064000061E532B861E4F2B061F562B861F6A2B0A
:1006500086010B1009003130BF007423282B323083
:10066000BF007423282B3330BF007423282B343071
:10067000BF007423282B3530BF007423282B36305D
:10068000BF007423282B3730BF007423282B383049
:10069000BF007423282B3930BF007423282B30303F
:1006A000BF007423282B2A30A400282B30303A02B4
:1006B000B40030303B02B50030303D02B60030307F
:1006C0003E02B700B9013914282BB901B914282BFF
:1006D000282B282B282B0930EC00B430F800F80B1D
:1006E0006F2BEC0B6D2B0800410884003F08800045
:1006F000C103C003023040060319C1034008031DB3
:1007000008000430C0003E30C10008009223840A73
:10071000A00B862B8801871524278711A423053079
:10072000A00008000024A100211CA02BA22B8710F0
:1007300000008714A10CA20B942B0630A200080025
:100740000711972B0715972BA30A083023060319C7
:04075000A3010800F9
:1008000004308A00203000028207402C4A2C542CED
:100810005E2C682C722C7C2C862C902C9A2CA42C70
:10082000AE2CB82CC22CCC2CD62C002D0C2D182D77
:10083000242D302D3C2D482D542D602D6C2D782DE0
:10084000842D902D9C2DA82DB42DC02DCC2DD82DD0
:10085000E42D002E0C2E182E242E302E3C2E482E49
:10086000542E602E6C2E782E842E902E9C2EA82E28
:10087000B42EC02ECC2ED82EE42E002F0C2F182FE5
:10088000230882070034003400340034003400347C
:1008900000340034230882070C340C340C340C343C
:1008A0000C3400340C340C342308820724342434F0
:1008B0002434003400340034003400342308820728
:1008C0000A340A341F340A340A341F340A340A340E
:1008D0002308820704340E34153414340E340534DE
:1008E0001E340434230882070034183419340234C7
:1008F0000434083413340334230882070C341234CC
:1009000012340D341E34123412340D34230882078D
:10091000083408340834003400340034003400341F
:100920002308820707340C34183418341834183468
:100930000C340734230882071C3406340334033490
:100940000334033406341C3423088207003415347E
:100950000E341F341F340E3415340034230882073C
:100960000034043404341F340434043400340034B8
:100970002308820700340034003400340034033488
:1009800001340234230882070034003400341F3459
:10099000003400340034003423088207003400346B
:1009A0000034003400340E340E340E342308820731
:1009B00000340134033406340C3418343034203419
:100A000005308A00230882070E341334133415345A
:100A10001934193419340E3405308A00230882073A
:100A2000033407340F341B340334033403340334E6
:100A300005308A00230882070E3411340134023451
:100A40000434083410341F3405308A002308820728
:100A50001F340134013406340134013411340E34AE
:100A600005308A0023088207023406340A3412341F
:100A70001F3402340234023405308A00230882070E
:100A80001F34103410341E340134013411340E3448
:100A900005308A00230882070E34103410341E34C7
:100AA0001134113411340E3405308A0023088207C2
:100AB0001F34013401340234043404340434043463
:100AC00005308A00230882070E34113411340E34A5
:100AD0001134113411340E3405308A002308820792
:100AE0000E341134113411340F34013401340E3406
:100AF00005308A00230882070E340E340E34003489
:100B000000340E340E340E3405308A002308820778
:100B10000034003403340334003403340134023429
:100B200005308A00230882070034023406340C346E
:100B300018340C340634023405308A002308820746
:100B4000003400341F341F3400341F341F34003489
:100B500005308A0023088207003408340C34063438
:100B6000033406340C34083405308A002308820725
:100B70000E341B34033406340C340C3400340C347F
:100B800005308A002308820700340E3411341734EC
:100B90001534173410340E3405308A0023088207C8
:100BA0000E34113411341F341F3411341134113404
:100BB00005308A00230882071E34113411341E3494
:100BC0001134113411341E3405308A002308820791
:100BD0000E341134103410341034103411340E34F7
:100C000006308A00230882071E341134113411344F
:100C10001134113411341E3406308A00230882073F
:100C20001F34103410341E341034103410341F3478
:100C300006308A00230882071F34103410341E3413
:100C4000103410341034103406308A002308820720
:100C50000E34113410341F341134113411340E3465
:100C600006308A00230882071134113411341F34EE
:100C7000113411341134113406308A0023088207EC
:100C800004340434043404340434043404340434A4
:100C900006308A00230882071F34023402340234EB
:100CA0000234023412340C3406308A0023088207DE
:100CB00011341234143418341834143412341134F6
:100CC00006308A00230882071034103410341034A0
:100CD0001034103410341F3406308A002308820781
:100CE00011341B341B3415341134113411341134C4
:100CF00006308A0023088207113419341934153458
:100D0000133413341334113406308A002308820755
:100D10000E341134113411341134113411340E34B1
:100D200006308A00230882071E34113411341E3421
:100D3000103410341034103406308A00230882072F
:100D40000E3411341134153415340E340234023497
:100D500006308A00230882071E34113411341E34F1
:100D6000123411341134113406308A0023088207FA
:100D70000E34113410340E340134013411340E3475
:100D800006308A00230882071F34043404340434F4
:100D9000043404340434043406308A0023088207FF
:100DA00011341134113411341134113411340E341E
:100DB00006308A00230882071134113411341134AB
:100DC000113411340A34043406308A0023088207AF
:100DD000113411341134153415341B341B341134CF
:100E000007308A0023088207113411340A3404346D
:100E100004340A341134113407308A00230882075D
:100E20001134113411340A340434043404340434D5
:100E300007308A00230882071F3401340334063444
:100E40000C34183410341F3407308A00230882070A
:100E5000302F322F342F362F382F3A2F3C2F3E2F62
:100E600008140800881408000815080088150800F0
:100E700008160800881608000817080088170800D8
:02400E00E127A8
:02401000FF3F70
:00000001FF
